:020000040800F2
:1000000080060020BD010008C5010008C7010008E6
:10001000C9010008CB010008CD0100080000000064
:10002000000000000000000000000000CF010008F8
:10003000D101000800000000890100081109000832
:10004000D7010008D7010008D7010008D701000830
:10005000D7010008D7010008D7010008D701000820
:10006000D7010008D7010008D7010008D701000810
:10007000D7010008D7010008D7010008D701000800
:10008000D7010008D7010008D7010008D7010008F0
:10009000D7010008D7010008D7010008D7010008E0
:1000A000D7010008D7010008D7010008D7010008D0
:1000B000D7010008D701000800000000D7010008A0
:1000C000D70100080000000000000000D701000870
:1000D00000000000D7010008D70100080000000060
:1000E000D7010008D7010008D701000800F002F886
:1000F00000F03AF80AA090E8000C82448344AAF188
:100100000107DA4501D100F02FF8AFF2090EBAE885
:100110000F0013F0010F18BFFB1A43F0010318473B
:10012000E808000008090000103A24BF78C878C128
:10013000FAD8520724BF30C830C144BF04680C60ED
:10014000704700000023002400250026103A28BF35
:1001500078C1FBD8520728BF30C148BF0B60704739
:100160001FB51FBD10B510BD00F04BF81146FFF7CD
:10017000F7FF00F033FC00F069F803B4FFF7F2FF7B
:1001800003BC00F071F8000072B60A49096829B191
:100190002DE9F00F07490968C1F800D00649096840
:1001A00009688D4604490968024A1160BDE8F00FEC
:1001B00062B67047100000201400002009488047F4
:1001C00009480047FEE7FEE7FEE7FEE7FEE7FEE739
:1001D000FEE7FEE7FEE7FEE704480549054A064B51
:1001E000704700002D090008ED0000088000002085
:1001F00080060020800200208002002070477047A7
:100200007047754600F02CF8AE4605006946534627
:1002100020F00700854618B020B5FFF7DDFFBDE8E8
:1002200020404FF000064FF000074FF000084FF05D
:10023000000B21F00701AC46ACE8C009ACE8C009EE
:10024000ACE8C009ACE8C0098D46704710B504465B
:10025000AFF300802046BDE81040FFF78EBF0000DE
:10026000004870472000002001491820ABBEFEE77F
:10027000260002007047000008B50120ADF800001C
:1002800004208DF8020001208DF803000848009931
:1002900000F010F80220ADF8000004208DF80200F4
:1002A00001208DF803000248009900F003F808BD12
:1002B0000008014013B50346BDF8040000F066FBDA
:1002C0000446BDF80400FF286FDC9DF806000928ED
:1002D00012D2DFE800F00512253D5587BEF7F50084
:1002E0001868A20003219140884318601868A20092
:1002F0000C2191408843186028E11868A20003216E
:100300009140884318601868A200082191408843F2
:1003100018601868A200042191400843186015E194
:100320001868A20003219140884318601868A20051
:1003300004219140884318601868A2000821914068
:1003400008431860D868BDF804100843D860FDE081
:100350001868A20003219140884318601868A20021
:1003600004219140884318601868A2000821914038
:1003700008431860D868BDF804108843D860E5E0E9
:100380009DF8070020B1012810D0022822D11AE0E0
:100390001868A20002219140884318601868A200E2
:1003A000012191400843186014E0D0E01868A200D1
:1003B00001219140884318601868A20002219140F1
:1003C0000843186006E01868A20003219140084322
:1003D000186000BF00BF1868A2000C21914088433C
:1003E0001860B3E09DF8070020B101280FD0022863
:1003F00021D119E01868A2000221914088431860B9
:100400001868A200012191400843186013E01868A1
:10041000A20001219140884318601868A2000221BF
:1004200091400843186006E01868A200032191403B
:100430000843186000BF00BF1868A200082191405F
:10044000884318601868A20004219140084318608E
:100450007CE09DF8070020B101280FD0022821D1AF
:1004600019E01868A20002219140884318601868BA
:10047000A200012191400843186013E01868A2000F
:1004800001219140884318601868A2000221914020
:100490000843186006E01868A20003219140084351
:1004A000186000BF00BF1868A20004219140884373
:1004B00018601868A200082191400843186045E0C0
:1004C00031E0FFE79DF8070020B101280FD0022896
:1004D00021D119E01868A2000221914088431860D8
:1004E0001868A200012191400843186013E01868C1
:1004F000A20001219140884318601868A2000221DF
:1005000091400843186006E01868A200032191405A
:100510000843186000BF00BF1868A2000C2191407A
:100520000843186012E01868A20003219140884334
:1005300018601868A2000821914088431860186864
:10054000A200042191400843186000BF43E1A4F1D8
:100550000800C4B29DF80600092812D2DFE800F0B6
:100560000512253D5586BDF6F4005868A20003210A
:100570009140884358605868A2000C2191408843FC
:10058000586027E15868A2000321914088435860D1
:100590005868A20008219140884358605868A2001A
:1005A000042191400843586014E15868A2000321D7
:1005B0009140884358605868A200042191408843C4
:1005C00058605868A2000821914008435860D868D4
:1005D000BDF804100843D860FCE05868A20003216D
:1005E0009140884358605868A20004219140884394
:1005F00058605868A2000821914008435860D868A4
:10060000BDF804108843D860E4E09DF8070020B1ED
:1006100001280FD0022821D119E05868A200022138
:100620009140884358605868A200012191400843D6
:10063000586013E05868A200012191408843586037
:100640005868A200022191400843586006E05868AB
:10065000A200032191400843586000BF00BF5868C2
:10066000A2000C21914088435860B3E09DF8070038
:1006700020B101280FD0022821D119E05868A2002A
:1006800002219140884358605868A200012191409E
:100690000843586013E05868A20001219140884344
:1006A00058605868A200022191400843586006E053
:1006B0005868A200032191400843586000BF00BF62
:1006C0005868A20008219140884358605868A200E9
:1006D00004219140084358607CE09DF8070020B158
:1006E00001280FD0022821D119E05868A200022168
:1006F0009140884358605868A20001219140084306
:10070000586013E05868A200012191408843586066
:100710005868A200022191400843586006E05868DA
:10072000A200032191400843586000BF00BF5868F1
:10073000A20004219140884358605868A200082113
:1007400091400843586045E031E0FFE79DF807001D
:1007500020B101280FD0022821D119E05868A20049
:1007600002219140884358605868A20001219140BD
:100770000843586013E05868A20001219140884363
:1007800058605868A200022191400843586006E072
:100790005868A200032191400843586000BF00BF81
:1007A0005868A2000C2191400843586012E0586834
:1007B000A20003219140884358605868A200082194
:1007C0009140884358605868A20004219140084332
:1007D000586000BF00BF1CBDC2684A40C26070477D
:1007E0000C4800680C49884203D10C480C49086049
:1007F00002E009480A490860094800680549096893
:10080000884205D00748006840F0805005490860DC
:1008100070470000100000200000002004000020AD
:100820001400002004ED00E010B500F001F810BD48
:100830000CB50020019000903348006840F48030EF
:100840003149086000BF3048006800F40030009073
:100850000198401C0190009818B90198B0F5A06F5C
:10086000F1D12948006800F4003010B10120009057
:1008700001E0002000900098012843D1234800683F
:1008800040F01000214908600846006820F0070089
:1008900008600846006840F0020008601A48406896
:1008A000194948600846406848600846406840F476
:1008B000806048600846406820F47C104860084624
:1008C000406840F4E81048600846006840F08070D6
:1008D000086000BF0C48006800F000700028F9D0E4
:1008E0000948406820F0030007494860084640680E
:1008F00040F00200486000BF0348406800F00C0070
:100900000828F9D10CBD0000001002400020024070
:1009100000B505480068401C0349086072B6FFF73F
:100920005FFF62B600BD00000C00002010B5134848
:10093000006840F00100114908600846406810490D
:1009400008400E494860084600680E4908400B49B7
:1009500008600846006820F4802008600846406867
:1009600020F4FE0048604FF41F008860FFF75CFF32
:100970004FF000600449086010BD00000010024004
:100980000000FFF8FFFFF6FE08ED00E00146002240
:1009900001E0521C49100029FBD1501EC0B2704723
:1009A000002108E0002200E0521C0623B0FBF3F314
:1009B0009342F9D8491C0623B0FBF3F38B42F1D8DC
:1009C0007047000007E002210348FFF705FF4FF4DE
:1009D0007A70FFF7E5FFF6E70008014008488069F4
:1009E00040F0040006498861FFF746FC07E001215A
:1009F0000448FFF7F1FE4FF4FA70FFF7D1FFF6E776
:100A00000010024000080140280A000800000020F1
:100A10002000000028010008480A000820000020EB
:100A20006006000044010008000000000000000013
:100A3000C5090008000000000000000000000000E0
:080A40000000000000000000AE
:04000005080001BD31
:00000001FF
