:020000040800F2
:100000007007002089010008910100089301000891
:100010009501000897010008990100080000000000
:100020000000000000000000000000009B0100082C
:100030009D01000800000000690C0008D50D0008B3
:10004000A3010008A3010008A3010008A301000800
:10005000A3010008A3010008A3010008A3010008F0
:10006000A3010008A3010008A3010008A3010008E0
:10007000A3010008A3010008A3010008A3010008D0
:10008000A3010008A3010008A3010008A3010008C0
:10009000A3010008A3010008A3010008A3010008B0
:1000A000A3010008A3010008A3010008A3010008A0
:1000B000A3010008A301000800000000A30100083C
:1000C000A30100080000000000000000A3010008D8
:1000D00000000000A3010008A301000800000000C8
:1000E000A3010008A3010008A301000800F002F822
:1000F00000F03AF80AA090E8000C82448344AAF188
:100100000107DA4501D100F02FF8AFF2090EBAE885
:100110000F0013F0010F18BFFB1A43F0010318473B
:10012000740E0000940E0000103A24BF78C878C105
:10013000FAD8520724BF30C830C144BF04680C60ED
:10014000704700000023002400250026103A28BF35
:1001500078C1FBD8520728BF30C148BF0B60704739
:100160001FB51FBD10B510BD00F031F81146FFF7E7
:10017000F7FF00F0DDFE00F04FF803B4FFF7F2FFE9
:1001800003BC00F057F800000948804709480047C1
:10019000FEE7FEE7FEE7FEE7FEE7FEE7FEE7FEE737
:1001A000FEE7FEE704480549054A064B7047000094
:1001B000F10D0008ED00000870010020700700201C
:1001C0007003002070030020704770477047754629
:1001D00000F02CF8AE4605006946534620F00700B3
:1001E000854618B020B5FFF7DDFFBDE820404FF091
:1001F00000064FF000074FF000084FF0000BAC4630
:10020000ACE8C009ACE8C009ACE8C009ACE8C0097A
:1002100021F007018D46704710B50446AFF300800A
:100220002046BDE81040FFF7A8BF00000048704717
:100230000800002001491820ABBEFEE7260002009E
:100240007047000080B584B001200190ADF80C002B
:10025000042100918DF80E108DF80F00039940F6DF
:100260000000C4F20100029000F010F8009A019919
:1002700002980223ADF80C308DF80E208DF80F1087
:10028000039900F003F804B080BD000080B58EB083
:100290000D910C90BDF8340000F0F8FD8DF82F00A2
:1002A000BDF83400FF2800F3FE81FFE79DF836001B
:1002B00001460A91082800F2F5810A99DFE811F059
:1002C00009001E003D0062008700D5002D01850158
:1002D000D3019DF82F008100032000FA01F20C9950
:1002E0000868904308609DF82F0081000C2000FAF8
:1002F00001F20C99086890430860D3E19DF82F0043
:100300008100032000FA01F20C990868904308600C
:100310009DF82F008100082000FA01F20C9908686E
:10032000904308609DF82F008100042000FA01F23C
:100330000C99086810430860B4E19DF82F00810013
:10034000032000FA01F20C990868904308609DF8B8
:100350002F008100042000FA01F20C9908689043F4
:1003600008609DF82F008100082000FA01F20C9926
:10037000086810430860BDF834200C99C868104321
:10038000C8608FE19DF82F008100032000FA01F280
:100390000C990868904308609DF82F0081000420A4
:1003A00000FA01F20C990868904308609DF82F004C
:1003B0008100082000FA01F20C99086810430860D7
:1003C000BDF834200C99C8689043C8606AE19DF874
:1003D00037000146099140B1FFE70998012819D07B
:1003E000FFE7099802282AD034E09DF82F00810009
:1003F000022000FA01F20C990868904308609DF809
:100400002F008100012000FA01F20C9908681043C6
:1004100008601FE09DF82F008100012000FA01F222
:100420000C990868904308609DF82F008100022015
:1004300000FA01F20C990868104308600AE09DF880
:100440002F008100032000FA01F20C990868104384
:100450000860FFE79DF82F0081000C2000FA01F2F0
:100460000C990868904308601CE19DF8370001462C
:10047000089140B1FFE70898012819D0FFE70898D4
:1004800002282AD034E09DF82F008100022000FAD3
:1004900001F20C990868904308609DF82F008100D4
:1004A000012000FA01F20C990868104308601FE06F
:1004B0009DF82F008100012000FA01F20C990868D4
:1004C000904308609DF82F008100022000FA01F29D
:1004D0000C990868104308600AE09DF82F0081001D
:1004E000032000FA01F20C99086810430860FFE746
:1004F0009DF82F008100082000FA01F20C9908688D
:10050000904308609DF82F008100042000FA01F25A
:100510000C99086810430860C4E09DF83700014654
:10052000079140B1FFE70798012819D0FFE7079826
:1005300002282AD034E09DF82F008100022000FA22
:1005400001F20C990868904308609DF82F00810023
:10055000012000FA01F20C990868104308601FE0BE
:100560009DF82F008100012000FA01F20C99086823
:10057000904308609DF82F008100022000FA01F2EC
:100580000C990868104308600AE09DF82F0081006C
:10059000032000FA01F20C99086810430860FFE795
:1005A0009DF82F008100042000FA01F20C990868E0
:1005B000904308609DF82F008100082000FA01F2A6
:1005C0000C990868104308606CE09DF837000146FC
:1005D000069140B1FFE70698012819D0FFE7069879
:1005E00002282AD034E09DF82F008100022000FA72
:1005F00001F20C990868904308609DF82F00810073
:10060000012000FA01F20C990868104308601FE00D
:100610009DF82F008100012000FA01F20C99086872
:10062000904308609DF82F008100022000FA01F23B
:100630000C990868104308600AE09DF82F008100BB
:10064000032000FA01F20C99086810430860FFE7E4
:100650009DF82F0081000C2000FA01F20C99086827
:10066000104308601EE09DF82F008100032000FA6F
:1006700001F20C990868904308609DF82F008100F2
:10068000082000FA01F20C990868904308609DF870
:100690002F008100042000FA01F20C990868104331
:1006A0000860FFE701E29DF82F0008388DF82F0061
:1006B0009DF8360001460591082800F2F58105995C
:1006C000DFE811F009001E003D0062008700D50040
:1006D0002D018501D3019DF82F008100032000FA30
:1006E00001F20C994868904348609DF82F00810002
:1006F0000C2000FA01F20C99486890434860D3E15D
:100700009DF82F008100032000FA01F20C9948683F
:10071000904348609DF82F008100082000FA01F204
:100720000C994868904348609DF82F008100042090
:1007300000FA01F20C99486810434860B4E19DF852
:100740002F008100032000FA01F20C9948689043C1
:1007500048609DF82F008100042000FA01F20C99F6
:100760004868904348609DF82F008100082000FAF7
:1007700001F20C99486810434860BDF834200C9988
:10078000C8681043C8608FE19DF82F0081000320E6
:1007900000FA01F20C994868904348609DF82F00D8
:1007A0008100042000FA01F20C99486890434860E7
:1007B0009DF82F008100082000FA01F20C9948688A
:1007C00010434860BDF834200C99C8689043C86055
:1007D0006AE19DF837000146049140B1FFE70498B3
:1007E000012819D0FFE7049802282AD034E09DF8A8
:1007F0002F008100022000FA01F20C994868904312
:1008000048609DF82F008100012000FA01F20C9948
:100810004868104348601FE09DF82F0081000120C8
:1008200000FA01F20C994868904348609DF82F0047
:100830008100022000FA01F20C99486810434860D8
:100840000AE09DF82F008100032000FA01F20C99C4
:10085000486810434860FFE79DF82F0081000C2096
:1008600000FA01F20C994868904348601CE19DF839
:1008700037000146039140B1FFE70398012819D0E2
:10088000FFE7039802282AD034E09DF82F0081006A
:10089000022000FA01F20C994868904348609DF8E4
:1008A0002F008100012000FA01F20C9948681043E2
:1008B00048601FE09DF82F008100012000FA01F23E
:1008C0000C994868904348609DF82F0081000220F1
:1008D00000FA01F20C994868104348600AE09DF85C
:1008E0002F008100032000FA01F20C9948681043A0
:1008F0004860FFE79DF82F008100082000FA01F210
:100900000C994868904348609DF82F0081000420AE
:1009100000FA01F20C99486810434860C4E09DF861
:1009200037000146029140B1FFE70298012819D033
:10093000FFE7029802282AD034E09DF82F008100BA
:10094000022000FA01F20C994868904348609DF833
:100950002F008100012000FA01F20C994868104331
:1009600048601FE09DF82F008100012000FA01F28D
:100970000C994868904348609DF82F008100022040
:1009800000FA01F20C994868104348600AE09DF8AB
:100990002F008100032000FA01F20C9948681043EF
:1009A0004860FFE79DF82F008100042000FA01F263
:1009B0000C994868904348609DF82F0081000820FA
:1009C00000FA01F20C994868104348606CE09DF809
:1009D00037000146019140B1FFE70198012819D085
:1009E000FFE7019802282AD034E09DF82F0081000B
:1009F000022000FA01F20C994868904348609DF883
:100A00002F008100012000FA01F20C994868104380
:100A100048601FE09DF82F008100012000FA01F2DC
:100A20000C994868904348609DF82F00810002208F
:100A300000FA01F20C994868104348600AE09DF8FA
:100A40002F008100032000FA01F20C99486810433E
:100A50004860FFE79DF82F0081000C2000FA01F2AA
:100A60000C994868104348601EE09DF82F008100F3
:100A7000032000FA01F20C994868904348609DF801
:100A80002F008100082000FA01F20C994868904379
:100A900048609DF82F008100042000FA01F20C99B3
:100AA000486810434860FFE7FFE70EB080BD0000D4
:100AB00082B00190ADF80210BDF802200199C8681B
:100AC0005040C86002B0704780B500F0C5F94EF6DE
:100AD0002051CEF20001086840F47F00086080BD1C
:100AE00040F26800C2F20000006840F27401C2F2F5
:100AF000000188420AD1FFE740F26C01C2F2000116
:100B000040F27800C2F20000086009E040F26C0197
:100B1000C2F2000140F27400C2F200000860FFE778
:100B200040F26C00C2F20000006840F26801C2F2BC
:100B300000010968884209D0FFE74EF60451CEF261
:100B40000001086840F080500860FFE7704700002F
:100B500086B0059004910392029303980299084489
:100B600020F0070001900199081F01904FF080705C
:100B700041F8040C049801990A1F019241F8040CF1
:100B80000199081F01900E2041F8040C0199081FDB
:100B900001900C2041F8040C0199081F01900320DA
:100BA00041F8040C0199081F0190022041F8040C3F
:100BB0000199081F0190012041F8040C0199081FB8
:100BC0000190002041F8040C0199081F01900B20AE
:100BD00041F8040C0199081F01900A2041F8040C07
:100BE0000199081F0190092041F8040C0199081F80
:100BF0000190082041F8040C0199081F019007207A
:100C000041F8040C0199081F0190062041F8040CDA
:100C10000199081F0190052041F8040C0199081F53
:100C20000190042041F8040C01980599086003988C
:100C3000013020F00700083000900198043801903E
:100C4000FFE70198009988420BD3FFE701994BF623
:100C5000EF60CDF6AD600860FFE7019804380190C1
:100C6000EFE706B07047000072B60A49096829B17B
:100C70002DE9F00F08490968C1F800D00749096853
:100C800009688D4606490968064A1160BDE8F00FFB
:100C900062B6704768000020680000206C000020E9
:100CA0006C0000206800002080B500F001F880BDD5
:100CB00084B000200390029041F20001C4F20201CE
:100CC000086840F480300860FFE741F20000C4F299
:100CD0000200006800F40030029003980130039095
:100CE000FFE702990020019039B9FFE70398B0F5BA
:100CF000A06018BF01200190FFE70198C0070028FD
:100D0000E3D1FFE741F20000C4F202000068800373
:100D1000002803D5FFE70120029002E000200290A6
:100D2000FFE70298012851D1FFE742F20001C4F227
:100D30000201086840F010000860086820F0070011
:100D40000860086840F00200086041F20401C4F243
:100D5000020100910868086008680860086840F4AB
:100D600080600860086820F47C100860086840F41F
:100D7000E810086041F20001C4F20201086840F086
:100D800080700860FFE741F20000C4F202000068D2
:100D90008001002801D4FFE7F5E741F20401C4F225
:100DA0000201086820F003000860086840F00200B3
:100DB0000860FFE741F20400C4F20200006800F09E
:100DC0000C00082801D0FFE7F4E700E0FFE704B0DB
:100DD0007047000080B540F27001C2F2000108685F
:100DE0000130086072B6FFF77BFE62B680BD00007E
:100DF00080B541F20002C4F20202106840F0010026
:100E0000106041F20401C4F2020108680023CFF629
:100E1000FF031840086010684FF6FF73CFF6F663C3
:100E200018401060106820F480201060086820F4DA
:100E3000FE00086041F20801C4F202014FF41F00F5
:100E40000860FFF731FF4EF60851CEF200014FF077
:100E50000060086080BD000072B64EF21001CEF254
:100E60000001002008604EF21403CEF200034AF2A3
:100E7000EA52C0F201021A604EF21802CEF20002EB
:100E800010600720086062B67047000082B0ADF8BD
:100E9000060000200090FFE7BDF8060048B1FFE71C
:100EA000009801300090BDF806004008ADF806003B
:100EB000F2E700980138C0B202B0704783B00290E8
:100EC00000200190FFE701980299884211D2FFE7C4
:100ED00000200090FFE70098FE2805D8FFE7FFE715
:100EE000009801300090F6E7FFE70198013001908B
:100EF000E9E703B07047000080B5FFE740F6000067
:100F0000C4F201000121FFF7D3FDC820FFF7D6FF8F
:100F1000F4E7000080B5FFE740F60000C4F20100EE
:100F20000221FFF7C5FD6420FFF7C8FFF4E70000CA
:100F300080B582B00020019041F21801C4F2020194
:100F4000086840F004000860FFF77CF940F2740084
:100F5000C2F2000040F6F961C0F6000140F27C02E6
:100F6000C2F2000278230093FFF7F2FD009B40F2EB
:100F70007800C2F2000040F61571C0F6000140F2A0
:100F8000F402C2F20002FFF7E3FDFFF79DFDFFE769
:100F9000FEE70000B40F000800000020040000007D
:100FA00028010008B80F00080800002068070000AA
:080FB00044010008150F0008C0
:040000050800018965
:00000001FF
