:020000040800F2
:10000000680600206D0100087501000877010008EE
:10001000790100087B0100087D0100080000000054
:100020000000000000000000000000007F01000848
:10003000810100080000000083010008850100081C
:100040008701000887010008870100088701000870
:100050008701000887010008870100088701000860
:100060008701000887010008870100088701000850
:100070008701000887010008870100088701000840
:100080008701000887010008870100088701000830
:100090008701000887010008870100088701000820
:1000A0008701000887010008870100088701000810
:1000B0008701000887010008870100088701000800
:1000C00087010008870100088701000887010008F0
:1000D00087010008870100088701000887010008E0
:1000E00087010008870100088701000800F002F876
:1000F00000F02CF80AA090E8000C82448344AAF196
:100100000107DA4501D100F021F8AFF2090EBAE893
:100110000F0013F0010F18BFFB1A43F0010318473B
:10012000E80A0000F80A0000002300240025002649
:10013000103A28BF78C1FBD8520728BF30C148BF4A
:100140000B6070471FB51FBD10B510BD00F0A8F8BB
:100150001146FFF7F7FF00F0F7FC00F0C6F803B414
:10016000FFF7F2FF03BC00F0CDF80000094880471C
:1001700009480047FEE7FEE7FEE7FEE7FEE7FEE789
:10018000FEE7FEE7FEE7FEE704480549054A064BA1
:1001900070470000E10A0008ED0000086800002038
:1001A000680600206802002068020020032A40F24E
:1001B000308010F0030C00F0158011F8013BBCF109
:1001C000020F624498BF11F801CB00F8013B38BF21
:1001D00011F8013BA2F1040298BF00F801CB38BF2F
:1001E00000F8013B11F0030300F02880083AC0F04A
:1001F000088051F8043B083A51F804CBA0E80810F5
:10020000F5E7121D5CBF51F8043B40F8043BAFF327
:100210000080D20724BF11F8013B11F801CB48BF81
:1002200011F8012B24BF00F8013B00F801CB48BFB7
:1002300000F8012B704770477047704710B5203A9F
:10024000C0F00B80B1E81850A0E81850B1E8185081
:10025000A0E81850203ABFF4F5AF5FEA027C24BF53
:10026000B1E81850A0E8185044BF18C918C0BDE83C
:1002700010405FEA827C24BF51F8043B40F8043B05
:1002800008BF7047D20728BF31F8023B48BF11F8BA
:10029000012B28BF20F8023B48BF00F8012B704714
:1002A000754600F02BF8AE4605006946534620F02F
:1002B0000700854618B020B5FFF766FFBDE820406F
:1002C0004FF000064FF000074FF000084FF0000B12
:1002D000AC46ACE8C009ACE8C009ACE8C009ACE881
:1002E000C00921F007018D46704710B50446AFF3F1
:1002F00000802046BDE81040FFF731BF004870473E
:100300000000002001491820ABBEFEE726000200D5
:100310007047000082B0ADF80400BDF8040001464B
:100320000091012844D0FFE70098022844D0FFE75D
:100330000098042844D0FFE70098082844D0FFE73D
:100340000098102844D0FFE70098202844D0FFE709
:100350000098402844D0FFE70098802844D0FFE769
:100360000098B0F5807F43D0FFE70098B0F5007F9C
:1003700042D0FFE70098B0F5806F41D0FFE70098CA
:10038000B0F5006F40D0FFE70098B0F5805F3FD038
:10039000FFE70098B0F5005F3ED0FFE70098B0F5AA
:1003A000804F3DD0FFE70098B0F5004F3CD03FE0D4
:1003B00000208DF807003FE004208DF807003BE0A7
:1003C00008208DF8070037E00C208DF8070033E097
:1003D00010208DF807002FE014208DF807002BE087
:1003E00018208DF8070027E01C208DF8070023E077
:1003F00000208DF807001FE004208DF807001BE0A7
:1004000008208DF8070017E00C208DF8070013E096
:1004100010208DF807000FE014208DF807000BE086
:1004200018208DF8070007E01C208DF8070003E076
:1004300000208DF80700FFE79DF8070002B0704725
:1004400080B586B005900491002003908DF80B00D4
:1004500004980078FF2803DCFFE70598019003E08B
:10046000059804300190FFE7019803900498007804
:10047000FFF750FF01460F2000FA01F203990868C8
:10048000904308600498407805280FD0FFE704984F
:10049000407804280AD0FFE704984078072805D060
:1004A000FFE70498407806280DD1FFE704984278CA
:1004B00081786FF00F0000EB8200084300F00F001E
:1004C0008DF80B0032E004984078012804D0FFE753
:1004D0000498407840B9FFE7049841780C2000EA7E
:1004E00081008DF80B0020E004984078082804D1A2
:1004F000FFE704208DF80B0016E008208DF80B00B4
:1005000004984078022807D1FFE7049802780599FB
:10051000C8681043C86006E0049802780599C86866
:100520009043C860FFE7FFE7FFE7FFE79DF80B0098
:10053000009004980078FFF7EDFE0146009800FA5D
:1005400001F2039908681043086006B080BD0000FE
:1005500080B500F033F841F20401C4F202010968E9
:10056000C1F3031240F6EE31C0F60001895CC840C9
:1005700080BD000080B5FFF7EBFF41F20401C4F23B
:1005800002010968C1F3022240F6FE31C0F6000103
:10059000895CC84080BD000080B5FFF7D9FF41F2FB
:1005A0000401C4F202010968C1F3C22240F6FE311F
:1005B000C0F60001895CC84080BD000082B041F2F5
:1005C0000400C4F202000068C0F3810001460091FB
:1005D00020B1FFE70098012806D00BE041F200208F
:1005E000C0F27A00019008E042F20040C0F2F4004C
:1005F000019002E000200190FFE7019802B07047EF
:1006000080B590B00F900F9843F60001C4F201013D
:1006100088421ED1FFE700200B908DF8380006209D
:100620008DF8390001208DF83A0040F60000C4F240
:1006300001000C900EA90D91FFF702FF0B9A0C9888
:100640000D998DF8382008228DF83920FFF7F8FE33
:1006500078E00F9844F20041C4F20001884237D19B
:10066000FFE704208DF83800062006908DF8390049
:10067000012007908DF83A0040F60000C4F2010016
:1006800009900EA90A91FFF7DBFE09980A99082242
:1006900008928DF838208DF83920FFF7D1FE069B9F
:1006A000079A09980A994FF0020C8DF838C08DF816
:1006B00039308DF83A20FFF7C3FE079B089A099856
:1006C0000A998DF838308DF83920FFF7B9FE38E0F7
:1006D000002002908DF83800062000908DF8390037
:1006E000012001908DF83A0040F60040C4F201006C
:1006F00004900EA90591FFF7A3FE029A04980599AC
:100700008DF83820082203928DF83920FFF798FEE3
:10071000009B019ADDF808C0049805998DF838C04F
:100720008DF839308DF83A20FFF78AFE029B039A44
:10073000049805998DF838308DF83920FFF780FE40
:10074000FFE7FFE710B080BD80B584B00390029151
:10075000029840F26001C2F200010860039843F67B
:100760000001C4F20101884209D1FFE741F21801FA
:10077000C4F20201086840F4804008601AE003985F
:1007800044F20041C4F20001884209D1FFE741F27E
:100790001C01C4F20201086840F40030086008E05F
:1007A00041F21C01C4F20201086840F48020086094
:1007B000FFE7FFE70399C86840F40050C86002985B
:1007C00002780399C8681043C8600298027A0399B6
:1007D000C8681043C8600298427A0399C8681043F9
:1007E000C8600298827A03990869104308610298E8
:1007F000C27A0399486910434861039843F600019F
:10080000C4F20101884204D1FFE7FFF7C5FE019061
:1008100003E0FFF7AFFE0190FFE7019802994A68F5
:100820001101B0FBF1F1192358439200B0FBF2F231
:10083000642001FB1020000148F21F52C5F2EB12A8
:10084000A0FB0220C0F3431040EA01100090009882
:10085000039988600298007B98B3FFE70298027BB7
:100860000399C8681043C860039843F60001C4F2B6
:100870000101884209D1FFE74EF20411CEF20001D6
:10088000086840F0200008601AE0039844F2004134
:10089000C4F20001884209D1FFE74EF28411CEF282
:1008A0000001086840F04000086008E04EF20411C2
:1008B000CEF20001086840F080000860FFE7FFE723
:1008C00016E00298027B0399C8689043C8604EF214
:1008D0008411CEF20001086840F02000086008682A
:1008E00040F040000860086840F080000860FFE7C2
:1008F00004B080BD83B0029001918DF803209DF873
:10090000030048B9FFE7FFE70298006800060028E7
:1009100001D4FFE7F8E7FFE740F26000C2F2000011
:100920000068007A28B9FFE70198007802994860CA
:1009300006E0019800886FF35F2002994860FFE7A6
:1009400003B0704781B00090FFE700980068400650
:10095000002801D4FFE7F8E701B0704780B584B004
:10096000039002918DF807208DF806300020ADF835
:100970000400FFE7BDF804009DF80710884217DA6D
:10098000FFE703980299BDF8042001EB42019DF8AE
:100990000620FFF7AFFF43F60000C4F20100FFF7A7
:1009A000D1FFFFE7BDF804000130ADF80400E1E736
:1009B00004B080BD80B500F001F880BD84B0002097
:1009C0000390029041F20001C4F20201086840F471
:1009D00080300860FFE741F20000C4F202000068C6
:1009E00000F400300290039801300390FFE7029971
:1009F0000020019039B9FFE70398B0F5A06018BF57
:100A000001200190FFE70198C0070028E3D1FFE72C
:100A100041F20000C4F2020000688003002803D500
:100A2000FFE70120029002E000200290FFE7029819
:100A3000012851D1FFE742F20001C4F20201086827
:100A400040F010000860086820F00700086008689F
:100A500040F00200086041F20401C4F2020100917A
:100A60000868086008680860086840F480600860EA
:100A7000086820F47C100860086840F4E8100860FA
:100A800041F20001C4F20201086840F08070086081
:100A9000FFE741F20000C4F2020000688001002874
:100AA00001D4FFE7F5E741F20401C4F2020108684E
:100AB00020F003000860086840F002000860FFE7CB
:100AC00041F20400C4F20200006800F00C000828A3
:100AD00001D0FFE7F4E700E0FFE704B07047000053
:100AE00080B541F20002C4F20202106840F0010039
:100AF000106041F20401C4F2020108680023CFF63D
:100B0000FF031840086010684FF6FF73CFF6F663D6
:100B100018401060106820F480201060086820F4ED
:100B2000FE00086041F20801C4F202014FF41F0008
:100B30000860FFF73FFF4EF60851CEF200014FF07C
:100B40000060086080BD000080B58EB0002001907C
:100B50000D9041F20401C4F20201086820F0030084
:100B6000086040F6DA31C0F6000108A81422FFF749
:100B70001DFB019841F21802C4F20202116841F013
:100B800004011160116841F0010111604FF4165128
:100B900004918DF817008DF8180007908DF8150056
:100BA0008DF814008DF8160008208DF80C0043F61F
:100BB0000000C4F20100029003A9FFF7C5FD0298EE
:100BC000FFF71EFDFFE743F60000C4F2010008A98D
:100BD0000A220023FFF7C2FEF5E7740065007300E8
:100BE0007400000000000000000000000000000091
:100BF00000000000000001020304050607080000D1
:100C00000000010203040000180C0008000000208E
:080C100068060000280100083D
:040000050800016D81
:00000001FF
